:020000040800F2
:10000000000002202D0A0008AD090008B30900080D
:10001000B9090008BF090008C50900080000000070
:10002000000000000000000000000000CB090008F4
:10003000D909000800000000E7090008F5090008D8
:100040007D0A00087D0A00087D0A00087D0A000874
:100050007D0A00087D0A00087D0A00087D0A000864
:100060007D0A00087D0A00087D0A00087D0A000854
:100070007D0A00087D0A00087D0A00087D0A000844
:100080007D0A00087D0A00087D0A00087D0A000834
:100090007D0A00087D0A00087D0A00087D0A000824
:1000A0007D0A00087D0A00087D0A00087D0A000814
:1000B0007D0A00087D0A00087D0A00087D0A000804
:1000C0007D0A00087D0A00087D0A00087D0A0008F4
:1000D0007D0A00087D0A00087D0A00087D0A0008E4
:1000E0007D0A00087D0A00087D0A00087D0A0008D4
:1000F0007D0A00087D0A00087D0A00087D0A0008C4
:100100007D0A00087D0A00087D0A00087D0A0008B3
:100110007D0A00087D0A00087D0A00087D0A0008A3
:100120007D0A00087D0A00087D0A00087D0A000893
:100130007D0A00087D0A00087D0A00087D0A000883
:100140007D0A00087D0A00087D0A00087D0A000873
:100150007D0A00087D0A00087D0A00087D0A000863
:100160007D0A00087D0A00087D0A00087D0A000853
:100170007D0A00087D0A00087D0A000800000000D2
:080180007D0A00087D0A000859
:1001880010B5054C237833B9044B13B10448AFF3C9
:1001980000800123237010BD0C0000200000000027
:1001A8004419000808B5034B1BB103490348AFF3D2
:1001B800008008BD0000000010000020441900085D
:1001C80053B94AB9002908BF00281CBF4FF0FF31B6
:1001D8004FF0FF3000F072B9ADF1080C6DE904CEB4
:1001E80000F006F8DDF804E0DDE9022304B070470A
:1001F8002DE9F047089E04468846002B4BD18A42D9
:10020800154667D9B2FA82F24AB1C2F1200701FA5B
:1002180002F320FA07F7954047EA030894404FEAAB
:10022800154E230CB8FBFEF71FFA85FC0EFB17884A
:1002380043EA084307FB0CF1994209D9EB1807F187
:10024800FF3080F01B81994240F21881023F2B4415
:100258005B1AA4B2B3FBFEF00EFB103344EA03446E
:1002680000FB0CFCA44509D92C1900F1FF3380F0E0
:100278000781A44540F2048102382C4440EA074033
:10028800A4EB0C0400271EB1D4400023C6E90043A8
:100298003946BDE8F0878B4209D9002E00F0EB8083
:1002A8000027C6E9000138463946BDE8F087B3FAA9
:1002B80083F7002F47D18B4202D3824200F2FA80A3
:1002C800841A61EB030301209846002EE0D0C6E9AA
:1002D8000048DDE702B9FFDEB2FA82F2002A40F0F8
:1002E8008F80491B4FEA154E1FFA85F80127B1FB8D
:1002F800FEFC230C0EFB1C1143EA014308FB0CF126
:10030800994207D9EB180CF1FF3002D2994200F25A
:10031800CD808446591AA3B2B1FBFEF00EFB10142F
:1003280043EA044408FB00F8A04507D92C1900F15A
:10033800FF3302D2A04500F2B6801846A4EB0804A9
:1003480040EA0C409FE7C7F1200CBB4022FA0CFEA4
:100358004EEA030E01FA07F420FA0CF521FA0CF321
:100368004FEA1E482543B3FBF8F92C0C08FB193358
:100378001FFA8EFA44EA034309FB0AF49C4202FA84
:1003880007F200FA07F10BD91EEB030309F1FF305E
:1003980080F087809C4240F28480A9F1020973446E
:1003A8001B1BADB2B3FBF8F008FB103345EA03445E
:1003B80000FB0AFAA24508D91EEB040400F1FF333A
:1003C8006BD2A24569D90238744440EA0940A0FBBF
:1003D8000289A4EB0A044C45C2464B4654D351D07B
:1003E800002E69D0B1EB0A0564EB030404FA0CFC97
:1003F800FD40FC404CEA0505C6E90054002747E7E4
:10040800C2F1200320FA03F7954001FA02F021FA1D
:1004180003F34FEA154E3843010CB3FBFEF71FFAFE
:1004280085F80EFB173341EA034107FB08F38B42BB
:1004380004FA02F407D9691807F1FF3C2FD28B425E
:100448002DD9023F2944CB1A81B2B3FBFEF00EFB33
:10045800103341EA034100FB08F38B4207D96918BE
:1004680000F1FF3C17D28B4215D902382944C91A2A
:1004780040EA07473BE73746304609E70746E7E6DD
:100488001846FBE64145ABD2B8EB020A69EB0E020F
:1004980001381346A4E76046E9E7184695E767463A
:1004A800D1E781467CE702382C4447E7ACF1020CDF
:1004B8002B442FE7384608E73746E9E6704700BF80
:1004C80080B584B000AFC7F804C00023FB6016E015
:1004D80001224FF470410F4800F0E2FD4FF4C8705C
:1004E80000F03CFB00224FF470410A4800F0D8FDB0
:1004F8004FF4C87000F032FBFB680133FB60FB6807
:10050800022BE5DD4FF47A7000F028FB00BF1037AE
:10051800BD4680BD000C024080B582B000AF07F137
:1005280010037B6000F0A8FA00F07EF900F0DAF919
:100538003B1D9C46FFF7C4FF3B1D9C46002000F076
:100548000BF83B1D9C4600F0E1F83B1D9C46012042
:1005580000F002F8ECE7000080B584B000AF7860E6
:10056800C7F800C001224FF48051674800F098FD99
:100578004FF4967000F0F2FA7B68002B06D0012247
:100588004FF40041604800F08BFD05E001224FF474
:1005980000515D4800F084FD4FF4967000F0DEFADB
:1005A8000023FB6052E001224FF48041564800F0DE
:1005B80077FD00224FF48051534800F071FD4FF44D
:1005C800967000F0CBFA7B68DBB21A464FF4005104
:1005D8004D4800F065FD7B68002B0CBF012300230C
:1005E800DBB21A464FF40041474800F059FD4FF47A
:1005F800967000F0B3FA01224FF48051424800F09F
:100608004FFD00224FF480413F4800F049FD4FF470
:10061800967000F0A3FA7B68DBB21A464FF40041EB
:10062800394800F03DFD7B68002B0CBF01230023F7
:10063800DBB21A464FF40051334800F031FD4FF455
:10064800967000F08BFAFB680133FB60FB68052BA2
:10065800A9DD01224FF480412B4800F021FD002242
:100668004FF48051284800F01BFD4FF4967000F0BD
:1006780075FA7B68DBB21A464FF40051224800F045
:100688000FFD7B68002B0CBF01230023DBB21A4649
:100698004FF400411C4800F003FD4FF4967000F041
:1006A8005DFA01224FF48051174800F0F9FC00224E
:1006B8004FF48041144800F0F3FC4FF4967000F0BA
:1006C8004DFA7B68002B06D000224FF400510E48EB
:1006D80000F0E6FC05E000224FF400410A4800F073
:1006E800DFFC4FF4967000F039FA00224FF4805185
:1006F800054800F0D5FC4FF47A7000F02FFA00BFDF
:100708001037BD4680BD00BF000C024080B582B0E6
:1007180000AFC7F804C001224FF48051414800F0EF
:10072800BFFC4FF4FA7000F019FA01224FF400519F
:100738003C4800F0B5FC00224FF48051394800F0E5
:10074800AFFC4FF4FA7000F009FA01224FF480412F
:10075800344800F0A5FC00224FF40051314800F065
:100768009FFC4FF4FA7000F0F9F901224FF4805120
:100778002C4800F095FC4FF4FA7000F0EFF90122D4
:100788004FF40041274800F08BFC00224FF48051C1
:10079800244800F085FC4FF4FA7000F0DFF90122DC
:1007A8004FF400511F4800F07BFC00224FF4004139
:1007B8001C4800F075FC4FF4FA7000F0CFF90122E4
:1007C8004FF48051174800F06BFC4FF4FA7000F0BA
:1007D800C5F901224FF40041124800F061FC0022E3
:1007E8004FF480510F4800F05BFC4FF4FA7000F0B2
:1007F800B5F901224FF480510A4800F051FC4FF43A
:10080800FA7000F0ABF900224FF47041054800F08F
:1008180047FC4FF47A7000F0A1F900BF0837BD46D5
:1008280080BD00BF000C024080B594B000AF07F156
:10083800200330220021184601F078F807F10C0354
:1008480000221A605A609A60DA601A610023BB605D
:10085800224B1B6C214A43F0805313641F4B1B6CC3
:1008680003F08053BB60BB6800237B601C4B1B6894
:100878001B4A43F480431360194B1B6803F48043FD
:100888007B607B6802233B620123FB6210233B638E
:100898000023BB6307F12003184600F01BFC034646
:1008A800002B01D000F052F80F23FB6000233B61BE
:1008B80000237B610023BB610023FB6107F10C036C
:1008C8000021184600F076FE0346002B01D000F008
:1008D8003DF800BF5037BD4680BD00BF003802401C
:1008E8000070004080B586B000AF3B1D00221A6042
:1008F8005A609A60DA601A6100233B60114B1B6BE7
:10090800104A43F0080313630E4B1B6B03F00803F4
:100918003B603B6800224FF470410B4800F0C0FB7D
:100928004FF470437B600123BB600023FB6000230E
:100938003B613B1D1946044800F018FA00BF183700
:10094800BD4680BD00380240000C024080B400AFB4
:1009580072B6FEE780B483B000AF00237B60104B13
:100968005B6C0F4A43F4804353640D4B5B6C03F498
:1009780080437B607B6800233B60094B1B6C084A03
:1009880043F080531364064B1B6C03F080533B60A9
:100998003B6800BF0C37BD465DF8047B704700BF5D
:1009A8000038024080B400AFFEE780B400AFFEE735
:1009B80080B400AFFEE780B400AFFEE780B400AFBC
:1009C800FEE780B400AF00BFBD465DF8047B70470A
:1009D80080B400AF00BFBD465DF8047B704780B4AB
:1009E80000AF00BFBD465DF8047B704780B500AF1F
:1009F80000F094F800BF80BD80B400AF084BD3F876
:100A08008830074A43F47003C2F88830044B4FF02B
:100A180000629A6000BFBD465DF8047B704700BF66
:100A280000ED00E0DFF834D0002103E00C4B5B5808
:100A3800435004310B480C4B42189A42F6D30B4AE8
:100A480002E0002342F8043B094B9A42F9D3FFF72E
:100A5800D3FF00F047FFFFF75FFD7047000002205B
:100A68007C190008000000200C0000200C00002069
:100A78002C000020FEE7000080B500AF0E4B1B687D
:100A88000D4A43F4007313600B4B1B680A4A43F486
:100A980080631360084B1B68074A43F48073136034
:100AA800032000F02FF9002000F008F8FFF752FFAC
:100AB8000023184680BD00BF003C024080B582B0CC
:100AC80000AF7860124B1A68124B1B7819464FF426
:100AD8007A73B3FBF1F3B2FBF3F3184600F039F97C
:100AE8000346002B01D001230EE07B680F2B0AD8A8
:100AF800002279684FF0FF3000F00FF9064A7B6852
:100B08001360002300E0012318460837BD4680BD66
:100B180000000020080000200400002080B400AF7E
:100B2800064B1B781A46064B1B681344044A13608D
:100B380000BFBD465DF8047B704700BF0800002079
:100B48002800002080B400AF034B1B681846BD4640
:100B58005DF8047B704700BF2800002080B584B092
:100B680000AF7860FFF7EEFFB8607B68FB60FB685A
:100B7800B3F1FF3F05D0094B1B781A46FB681344B5
:100B8800FB6000BFFFF7DEFF0246BB68D31AFA68B6
:100B98009A42F7D800BF1037BD4680BD0800002034
:100BA80080B485B000AF78607B6803F00703FB6012
:100BB8000C4BDB68BB60BA684FF6FF031340BB60A1
:100BC800FB681A02BB68134343F0BF6343F4003366
:100BD800BB60044ABB68D36000BF1437BD465DF8EC
:100BE800047B704700ED00E080B400AF044BDB6885
:100BF8001B0A03F007031846BD465DF8047B7047DF
:100C080000ED00E080B483B000AF03463960FB71AB
:100C180097F90730002B0ADB3B68DAB20C4997F9E1
:100C280007301201D2B20B4483F800230AE03B6874
:100C3800DAB20849FB7903F00F03043B1201D2B280
:100C48000B441A7600BF0C37BD465DF8047B70472D
:100C580000E100E000ED00E080B489B000AFF8608A
:100C6800B9607A60FB6803F00703FB61FB69C3F1B5
:100C78000703042B28BF0423BB61FB690433062B3D
:100C880002D9FB69033B00E000237B614FF0FF3290
:100C9800BB6902FA03F3DA43BB681A407B699A40DE
:100CA8004FF0FF317B6901FA03F3D9437B680B40AE
:100CB800134318462437BD465DF8047B704700008F
:100CC80080B582B000AF78607B68013BB3F1807F6C
:100CD80001D301230FE00A4A7B68013B53600F21CF
:100CE8004FF0FF30FFF78EFF054B00229A60044B50
:100CF80007221A60002318460837BD4680BD00BF8A
:100D080010E000E080B582B000AF78607868FFF747
:100D180047FF00BF0837BD4680BD80B586B000AF2D
:100D28000346B9607A60FB7300237B61FFF75CFFC1
:100D380078617A68B9687869FFF78EFF024697F993
:100D48000F3011461846FFF75DFF00BF1837BD4644
:100D580080BD80B582B000AF78607868FFF7B0FFDB
:100D6800034618460837BD4680BD000080B489B0E8
:100D780000AF7860396000237B6100233B6100236A
:100D8800BB610023FB616BE10122FB6902FA03F3FB
:100D98007B613B681B687A6913403B613A697B69F0
:100DA8009A4240F05A813B685B68012B0BD03B6844
:100DB8005B68022B07D03B685B68112B03D03B684C
:100DC8005B68122B30D17B689B68BB61FB695B0059
:100DD800032202FA03F3DB43BA691340BB613B68A1
:100DE800DA68FB695B0002FA03F3BA691343BB6173
:100DF8007B68BA699A607B685B68BB610122FB69A2
:100E080002FA03F3DB43BA691340BB613B685B68D2
:100E18001B0903F00102FB6902FA03F3BA691343E1
:100E2800BB617B68BA695A607B68DB68BB61FB6938
:100E38005B00032202FA03F3DB43BA691340BB6188
:100E48003B689A68FB695B0002FA03F3BA691343CB
:100E5800BB617B68BA69DA603B685B68022B03D0C8
:100E68003B685B68122B23D1FB69DA087B68083280
:100E780053F82230BB61FB6903F007039B000F2284
:100E880002FA03F3DB43BA691340BB613B681A6992
:100E9800FB6903F007039B0002FA03F3BA691343E3
:100EA800BB61FB69DA087B680832B96943F822102C
:100EB8007B681B68BB61FB695B00032202FA03F3D2
:100EC800DB43BA691340BB613B685B6803F003020C
:100ED800FB695B0002FA03F3BA691343BB617B68E1
:100EE800BA691A603B685B6803F08053002B00F016
:100EF800B4800023FB605F4B5B6C5E4A43F4804325
:100F080053645C4B5B6C03F48043FB60FB685A4A98
:100F1800FB699B08023352F82330BB61FB6903F07D
:100F280003039B000F2202FA03F3DB43BA69134061
:100F3800BB617B68514A93422BD07B68504A9342ED
:100F480025D07B684F4A93421FD07B684E4A934214
:100F580019D07B684D4A934213D07B684C4A934220
:100F68000DD07B684B4A934207D07B684A4A93422C
:100F780001D107230EE008230CE006230AE005232D
:100F880008E0042306E0032304E0022302E001232F
:100F980000E00023FA6902F0030292009340BA6964
:100FA8001343BB613449FB699B080233BA6941F8B2
:100FB80023203A4B1B68BB613B69DB43BA6913408A
:100FC800BB613B685B6803F48033002B03D0BA69CC
:100FD8003B691343BB61314ABB6913602F4B5B68A4
:100FE800BB613B69DB43BA691340BB613B685B6823
:100FF80003F40033002B03D0BA693B691343BB6188
:10100800264ABB695360254B9B68BB613B69DB4340
:10101800BA691340BB613B685B6803F48013002B1B
:1010280003D0BA693B691343BB611C4ABB6993602F
:101038001A4BDB68BB613B69DB43BA691340BB6190
:101048003B685B6803F40013002B03D0BA693B6963
:101058001343BB61114ABB69D360FB690133FB6170
:10106800FB690F2B7FF690AE00BF2437BD465DF8B5
:10107800047B7047003802400038014000000240FD
:101088000004024000080240000C02400010024028
:101098000014024000180240001C0240003C0140BD
:1010A80080B483B000AF78600B467B8013467B70BA
:1010B8007B78002B03D07A887B689A6103E07B8871
:1010C8001A047B689A6100BF0C37BD465DF8047B43
:1010D8007047000080B586B000AF78607B68002B51
:1010E80001D101235BE27B681B6803F00103002B3D
:1010F80075D0A34B9B6803F00C03042B0CD0A04BBA
:101108009B6803F00C03082B12D19D4B5B6803F41A
:101118008003B3F5800F0BD1994B1B6803F40033A0
:10112800002B5BD07B685B68002B57D1012336E22C
:101138007B685B68B3F5803F06D1914B1B68904A8A
:1011480043F4803313601DE07B685B68B3F5A02F20
:101158000CD18B4B1B688A4A43F480231360884B5D
:101168001B68874A43F4803313600BE0844B1B6889
:10117800834A23F480331360814B1B68804A23F42D
:10118800802313607B685B68002B13D0FFF7DAFCC1
:10119800386108E0FFF7D6FC02463B69D31A642B96
:1011A80001D90323FBE1764B1B6803F40033002BC2
:1011B800F0D014E0FFF7C6FC386108E0FFF7C2FC86
:1011C80002463B69D31A642B01D90323E7E16C4B30
:1011D8001B6803F40033002BF0D100E000BF7B68EC
:1011E8001B6803F00203002B63D0654B9B6803F078
:1011F8000C03002B0BD0624B9B6803F00C03082BED
:101208001CD15F4B5B6803F48003002B16D15C4B49
:101218001B6803F00203002B05D07B68DB68012BF9
:1012280001D00123BBE1564B1B6823F0F8027B6811
:101238001B69DB00524913430B603AE07B68DB68AB
:10124800002B20D04F4B01221A60FFF77BFC38613E
:1012580008E0FFF777FC02463B69D31A022B01D955
:1012680003239CE1464B1B6803F00203002BF0D0DC
:10127800434B1B6823F0F8027B681B69DB0040497D
:1012880013430B6015E03F4B00221A60FFF75AFC2E
:10129800386108E0FFF756FC02463B69D31A022B77
:1012A80001D903237BE1364B1B6803F00203002BB3
:1012B800F0D17B681B6803F00803002B30D07B68F3
:1012C8005B69002B16D0304B01221A60FFF73AFCFD
:1012D800386108E0FFF736FC02463B69D31A022B57
:1012E80001D903235BE1264B5B6F03F00203002B5C
:1012F800F0D015E0244B00221A60FFF723FC386178
:1013080008E0FFF71FFC02463B69D31A022B01D9FC
:10131800032344E11A4B5B6F03F00203002BF0D167
:101328007B681B6803F00403002B00F0A0800023F7
:10133800FB75134B1B6C03F08053002B0FD100235C
:10134800BB600F4B1B6C0E4A43F0805313640C4B6D
:101358001B6C03F08053BB60BB680123FB750B4B10
:101368001B6803F48073002B21D1084B1B68074AC4
:1013780043F480731360FFF7E5FB386111E000BFA9
:101388000038024000004742800E4742007000408B
:10139800FFF7D8FB02463B69D31A022B01D9032376
:1013A800FDE0814B1B6803F48073002BF0D07B6851
:1013B8009B68012B06D17D4B1B6F7C4A43F00103D0
:1013C80013671CE07B689B68052B0CD1774B1B6F60
:1013D800764A43F004031367744B1B6F734A43F058
:1013E800010313670BE0714B1B6F704A23F0010375
:1013F80013676E4B1B6F6D4A23F0040313677B68FA
:101408009B68002B15D0FFF79DFB38610AE0FFF7BA
:1014180099FB02463B69D31A41F28832934201D9BB
:101428000323BCE0614B1B6F03F00203002BEED0DB
:1014380014E0FFF787FB38610AE0FFF783FB0246F9
:101448003B69D31A41F28832934201D90323A6E0BB
:10145800564B1B6F03F00203002BEED1FB7D012BD3
:1014680005D1524B1B6C514A23F0805313647B689F
:101478009B69002B00F092804C4B9B6803F00C0397
:10148800082B5CD07B689B69022B41D1484B00221A
:101498001A60FFF757FB386108E0FFF753FB024675
:1014A8003B69D31A022B01D9032378E03F4B1B6811
:1014B80003F00073002BF0D17B68DA697B681B6A44
:1014C8001A437B685B6A9B011A437B689B6A5B08CB
:1014D800013B1B041A437B68DB6A1B063349134331
:1014E8004B60334B01221A60FFF72CFB386108E090
:1014F800FFF728FB02463B69D31A022B01D90323C5
:101508004DE02A4B1B6803F00073002BF0D045E038
:10151800274B00221A60FFF715FB386108E0FFF738
:1015280011FB02463B69D31A022B01D9032336E08B
:101538001E4B1B6803F00073002BF0D12EE07B6874
:101548009B69012B01D1012329E0184B5B68FB60E3
:10155800FB6803F480027B68DB699A421CD1FB6854
:1015680003F03F027B681B6A9A4215D1FA6847F676
:10157800C07313407A68526A93420DD1FB6803F432
:1015880040327B689B6A9A4206D1FB6803F070621E
:101598007B68DB6A9A4201D0012300E000231846E9
:1015A8001837BD4680BD00BF0070004000380240BB
:1015B8006000474280B584B000AF786039607B68CE
:1015C800002B01D10123CCE0684B1B6803F00F030B
:1015D8003A689A420CD9654B3A68D2B21A70634B92
:1015E8001B6803F00F033A689A4201D00123B8E060
:1015F8007B681B6803F00203002B20D07B681B6804
:1016080003F00403002B05D0594B9B68584A43F458
:10161800E05393607B681B6803F00803002B05D038
:10162800534B9B68524A43F460439360504B9B680A
:1016380023F0F0027B689B684D4913438B607B68FD
:101648001B6803F00103002B44D07B685B68012B07
:1016580007D1474B1B6803F40033002B19D1012332
:101668007FE07B685B68022B03D07B685B68032B99
:1016780007D13F4B1B6803F00073002B09D10123EE
:101688006FE03B4B1B6803F00203002B01D10123E1
:1016980067E0374B9B6823F003027B685B6834493B
:1016A80013438B60FFF74EFAF8600AE0FFF74AFA37
:1016B8000246FB68D31A41F28832934201D90323C8
:1016C8004FE02B4B9B6803F00C027B685B689B0028
:1016D8009A42EBD1254B1B6803F00F033A689A42F4
:1016E8000CD2224B3A68D2B21A70204B1B6803F016
:1016F8000F033A689A4201D0012332E07B681B68E5
:1017080003F00403002B08D0194B9B6823F4E05224
:101718007B68DB68164913438B607B681B6803F0A2
:101728000803002B09D0124B9B6823F460427B68A6
:101738001B69DB000E4913438B6000F021F801465A
:101748000B4B9B681B0903F00F030A4AD35C21FA71
:1017580003F3094A1360094B1B681846FFF7AEF9F3
:10176800002318461037BD4680BD00BF003C02402C
:10177800003802405C190008000000200400002026
:10178800F0B585B000AF00237B600023FB60002329
:101798003B600023BB60504B9B6803F00C03042B99
:1017A80007D0082B08D0002B40F08D804B4BBB6036
:1017B8008CE04B4BBB6089E0474B5B6803F03F0311
:1017C8007B60454B5B6803F48003002B23D0424BBE
:1017D8005B689B094FF0000440F2FF114FF00002D4
:1017E80003EA010504EA02063D4A02FB06F100226B
:1017F80002FB05F20A443A49A5FB010153181946B0
:101808007B684FF000041A462346FEF7D9FC0346CE
:101818000C46FB6049E0304B5B689B094FF00004C5
:1018280040F2FF114FF0000203EA010504EA020644
:10183800294632464FF000034FF00004540144EAB1
:10184800D1644B0119462246491B62EB06024FF050
:1018580000034FF00004940144EA91648B015B1A81
:1018680064EB02044FF000014FF00002E20042EA8C
:101878005372D9000B4614465B1944EB06044FF02B
:1018880000014FF00002A20242EA935299020B466D
:101898001446184621467B684FF000041A46234632
:1018A800FEF78EFC03460C46FB600B4B5B681B0C7B
:1018B80003F0030301335B003B60FA683B68B2FB4B
:1018C800F3F3BB6002E0054BBB6000BFBB68184682
:1018D8001437BD46F0BD00BF003802400024F400B4
:1018E80040787D0170B50D4E0D4CA41BA410002549
:1018F800A54209D10B4E0C4C00F020F8A41BA410F3
:101908000025A54205D170BD56F825309847013508
:10191800EEE756F8253098470135F2E774190008C4
:10192800741900087419000878190008024403465D
:10193800934200D1704703F8011BF9E7F8B500BFDF
:10194800F8BC08BC9E467047F8B500BFF8BC08BC98
:041958009E467047F0
:10195C000000000000000000010203040607080953
:08196C008CE8FF7F0100000080
:04197400AD010008B9
:0419780089010008D9
:0C197C000024F400100000000100000036
:0400000508000A2DB8
:00000001FF
